:020000040000FA
:06000000C8EF03F012003E
:020006001200E6
:060008006DEF00F0120094
:02000E00CD9093
:040010009D901200AD
:060018006DEF00F0120084
:02001E000100DF
:0C002000B2070000800000002C0000006F
:04002C00D9CFE6FF43
:10003000E1CFD9FF010EE66E99EC02F0E552960E83
:10004000E66E000EE66EC2EC02F0E552E55292EC6E
:1000500003F0000901E0FBD7FD0EDBCF10F0FE0E30
:10006000DBCF11F00A0E0D6E0E6A10C008F011C041
:1000700009F0E9EC02F008C010F009C011F0300EF0
:100080001024E66E70EC02F0E55292EC03F00009E9
:1000900001E0FBD7FD0EDBCF10F0FE0EDBCF11F041
:1000A0000A0E0D6E0E6A10C008F011C009F0E9ECDE
:1000B00002F004C010F005C011F0300E1024E66EFE
:1000C00070EC02F0E552FD0EDB2AFE0E01E3DB2AA6
:1000D00000D0E552E7CFD9FF1200DACFE4FFE2CF3C
:1000E000DAFFE9CFE4FFEACFE4FFF6CFE4FFF7CF92
:1000F000E4FFF5CFE4FFF3CFE4FFF4CFE4FFFACF62
:10010000E4FF00EE00F0100EE80403E3EECFE4FF9E
:10011000FBD700EE10F0020EE80403E3EECFE4FF9D
:10012000FBD7E6529EA22CD00001865187111FE119
:10013000829284C0E6FF85C0E6FF78DFE552E55293
:10014000640EE66E65EC03F0E5520001842B000EB0
:100150008523150E841901E1855108E1846B856BB7
:10016000010E866F876B882B000E8923DDD7000E6A
:10017000E66EE66A2EEC03F0E552E5529E929D9201
:10018000E55200EE11F0020EE80403E3E5CFEDFFC7
:10019000FBD700EE0FF0100EE80403E3E5CFEDFF10
:1001A000FBD7E5CFFAFFE5CFF4FFE5CFF3FFE5CFCF
:1001B000F5FFE5CFF7FFE5CFF6FFE5CFEAFFE5CFA7
:1001C000E9FFE5CFDAFF11000000000000000000A9
:1001D000000000000000000000000000000000001F
:1001E00000000000000000000000000012003C0EB3
:1001F000E66EA8EC03F0E55200D01200140EE66E95
:10020000A8EC03F0E55200D01200D9CFE6FFE1CF11
:10021000D9FF010EE66E99EC02F0E5528A0EE66E09
:10022000000EE66EC2EC02F0E552E55292EC03F0ED
:10023000000901E0FBD7FD0EDBCF10F0FE0EDBCF97
:1002400011F00A0E0D6E0E6A10C008F011C009F010
:10025000E9EC02F008C010F009C011F0300E1024D3
:10026000E66E70EC02F0E55292EC03F0000901E05A
:10027000FBD7FD0EDBCF10F0FE0EDBCF11F00A0E28
:100280000D6E0E6A10C008F011C009F0E9EC02F022
:1002900004C010F005C011F0300E1024E66E70ECB2
:1002A00002F0E552050EE66E65EC03F0E552FD0E38
:1002B000DB2AFE0E01E3DB2AE552E7CFD9FF12006D
:1002C000946A826A280EE66EA3EC01F0E55207EC10
:1002D00000F00C0EE66E99EC02F0E552FE0EE66EB2
:1002E0004AEC03F0E552FA0ECB6ED08E0001010EFF
:1002F000861901E1875125E182820FEC03F0F3CFEB
:1003000080F0F4CF81F0050EE66E65EC03F0E55267
:1003100080C0E6FF81C0E6FF78DFE552E5520001CC
:100320000A0E801901E181510BE1866B876BD6ECD7
:1003300003F007EC00F0F28E9D820001806B816B70
:06034000D5D7D4D712004E
:0A034600D9CFE6FFDACFE6FFE1CFE2
:10035000D9FFE2CFDAFFF00E81169316939C939AA1
:1003600093988A9C8A9A8A98F7EC00F0300E35D8D8
:10037000050EE66E65EC03F0E552300E2ED8010E48
:10038000E66E65EC03F0E552320E27D82BD8FEE17D
:1003900029D8FEE1FD0EDBCFE6FF99EC02F0E55235
:1003A00021D8FEE1080E19D81DD8FEE10F0E15D890
:1003B00019D8FEE1010E11D815D8FEE1040E0DD8B2
:1003C00011D8FEE1800EE66E45EC02F0E552E552F2
:1003D000E5CFDAFFE7CFD9FF1200E66E99EC02F025
:0C03E000E552120092EC03F0000912003C
:0403EC001E0EF66E7D
:1003F000000EF76E000EF86E00010900F550B16FA7
:100400000900F550B26F03E1B16701D03DD009009A
:10041000F550AC6F0900F550AD6F0900F550AE6FA7
:1004200009000900F550E96E0900F550EA6E09006F
:1004300009000900F550AF6F0900F550B06F0900D1
:100440000900F6CFB3F0F7CFB4F0F8CFB5F0ACC0F9
:10045000F6FFADC0F7FFAEC0F8FF0001AF5302E1F9
:10046000B05307E00900F550EE6EAF07F8E2B007B1
:10047000F9D7B3C0F6FFB4C0F7FFB5C0F8FF00016D
:0A048000B107000EB25BBFD71200F7
:06048A00D9CFE6FFDACF36
:10049000E6FFE1CFD9FFE2CFDAFFF00E9316811627
:1004A000FD0EDB508009E8380F0B0F0B81128A9C80
:1004B0008A9A0FD8F00E8116FD0EDB500F0B8112B9
:1004C00008D80F0E9312E552E5CFDAFFE7CFD9FF38
:1004D0001200E4EC00F08A88E4EC00F08A98120044
:1004E000D9CFE6FFDACFE6FFE1CFD9FFE2CFDAFFDF
:1004F000F00E93168116FD0EDB380F0B0F0B8112D9
:100500008A8A8A9C0FD8F00E8116FD0EDB500F0BE5
:10051000811208D80F0E9312E552E5CFDAFFE7CF2C
:10052000D9FF1200E4EC00F08A88E4EC00F08A982D
:020530001200B7
:0E053200D9CFE6FFDACFE6FFE1CFD9FFE2CF67
:10054000DAFFF00E93168116FD0EDB380F0B0F0B42
:1005500081128A9C8A9A0FD8F00E8116FD0EDB500C
:100560000F0B811208D80F0E9312E552E5CFDAFF78
:10057000E7CFD9FF1200E4EC00F08A88E4EC00F049
:040580008A98120043
:0C058400D9CFE6FFDACFE6FFE1CFD9FFC8
:10059000E2CFDAFF16D80FE092EC03F00009FCE19D
:1005A00010D8E66E70EC02F0E552FC0EDB2AFD0E70
:1005B000F1E3DB2AEFD7E552E5CFDAFFE7CFD9FF4A
:1005C0001200FC0EDBCFE9FFFD0EDBCFEAFFEF50A0
:0205D000120017
:0E05D200006A0EAEF2EF02F00D6C0E1EE86A2B
:1005E0000E22001E09AEFAEF02F0086C091EE86A3E
:1005F0000922001E7CEC03F009BE0AEF03F000AEF6
:10060000000C086C091EE86A0922046C051EE86AE1
:0E0610000522000C00BE01EF03F00188FF0C74
:02061E00D9CF32
:10062000E6FFDACFE6FFE1CFD9FFE2CFDAFFE6520D
:10063000E652D650DF6E010ED7CFDBFFDECF10F0D3
:10064000DDCF11F010C0F3FF11C0F4FFE552E55209
:0C065000E552E5CFDAFFE7CFD9FF12003A
:04065C00D9CFE6FF0D
:10066000DACFE6FFE1CFD9FFE2CFDAFFE652E6527A
:10067000FC0EDBCFDEFFDBCFDDFF010EDB50D76EE4
:10068000DF50D66EE552E552E552E5CFDAFFE7CF0F
:04069000D9FF12007C
:0C069400D9CFE6FFDACFE6FFE1CFD9FFB7
:1006A000E2CFDAFFFD0EDB50FB0BCA6ECC6A9E92E6
:1006B000FD0EDBAE02D09D8201D09D92CA84E55230
:0A06C000E5CFDAFFE7CFD9FF120003
:0606CA00FF0EE350136E69
:1006D000EF0E01D0F30EE76EE72E6CEF03F00C0E79
:1006E000126EE76AE72E72EF03F0122E71EF03F03D
:0806F000132E6AEF03F0120063
:0806F800056A046A100EE76EAA
:10070000D89008360936043605360D50045C0E5074
:10071000055805E30D50045E0E50055A082AE72ED1
:04072000F0D71200FC
:0C0724008A8C8A9AE4EC00F08A88E4ECED
:1007300000F081A602D003D8010C01D8000C8A98E1
:10074000E4EC00F08A88E4EC00F08A988A9C1200BD
:10075000FF0EE350136E480E01D04C0EE76EE72EED
:10076000FED7E76AE72EFED7132EF7D70000120058
:10077000000EF36E00EE00F0060E01D81200EA60E3
:1007800002D0EE6AFCD7F350E9601200EE6AFCD7A3
:1007900015EE00F025EE00F0F86A019CF6EC01F091
:0C07A00003EC00F060EC01F0FBD712004D
:0407AC00D59EF29A4A
:0207B000120035
:0E07B200000000000000010000005572756E8E
:1007C000206164656469200042656B6C656D65201D
:0E07D000005572756E2061646564692030000A
:020000040030CA
:0100010021DD
:010002000EEF
:010003000EEE
:010006008178
:010008000FE8
:01000900C036
:01000A000FE6
:01000B00E014
:01000C000FE4
:01000D0040B2
:00000001FF
