:020000040000FA
:0600000095EF05F012006F
:020006000000F8
:08000800DACFE4FFE2CFDAFFDA
:10001000E652D9CFE6FFE1CFD9FF020EE126DE6A34
:10002000DD6AF250040B07E0F250200B04E0DF2AF7
:10003000010E01E3DB2A020EE15C02E2E16AE55215
:10004000E16EE552E7CFD9FFE552E5CFDAFF1100C7
:10005000DACFE4FFE2CFDAFFE9CFE4FFEACFE4FF53
:10006000F6CFE4FFF7CFE4FFF5CFE4FFF3CFE4FFF3
:10007000F4CFE4FFFACFE4FF00EE07F0020EE8044D
:1000800003E3EECFE4FFFBD700EE00F0050EE8043B
:1000900003E3EECFE4FFFBD7E652D9CFE6FFE1CF93
:1000A000D9FF120EE126DE6ADD6A020EDB6A9EA22D
:1000B000AFD0D950090FE96EDACFEAFF200EEE6E0D
:1000C000420EEE6E650EEE6E6B0EEE6E6C0EEE6E0A
:1000D000650EEE6E6D0EEE6E650EEE6EEE6A5FEC08
:1000E00005F0000901E0FBD7D950090FE66E000EBC
:1000F000DA20E66EAFEC04F0E552E552D950020F7B
:10010000E66E000EDA20E66EDECFE6FFDDCFE6FF1C
:10011000F6EC02F0E552E552E552E552C00EE66E0D
:1001200086EC04F0E552D950020FE66E000EDA209C
:10013000E66EAFEC04F0E552E552070EDB6A080EFE
:10014000DB6A070EDBCF05F0080EDBCF06F0D89098
:10015000065004E6140E055C000E065859E2030E24
:10016000DB6A040EDB6A030EDBCF05F0040EDBCF87
:1001700006F0D890065004E6010E055C000E065805
:1001800041E2DF2A010E01E3DB2A050EDB6A060EDF
:10019000DB6A050EDBCF05F0060EDBCF06F0D8904C
:1001A000065004E61C0E055C020E065825E2D950E6
:1001B000020FE66E000EDA20E66EDECFE6FFDDCF40
:1001C000E6FFF6EC02F0E552E552E552E552C00ECC
:1001D000E66E86EC04F0E552D950020FE66E000E92
:1001E000DA20E66EAFEC04F0E552E552050EDB2AAC
:1001F000060E01E3DB2ACDD7030EDB2A040E01E352
:10020000DB2AB1D7070EDB2A080E01E3DB2A99D7D8
:10021000120EE15C02E2E16AE552E16EE552E7CFDF
:10022000D9FFE55200EE04F0050EE80403E3E5CF44
:10023000EDFFFBD700EE08F0020EE80403E3E5CF84
:10024000EDFFFBD7E5CFFAFFE5CFF4FFE5CFF3FFF6
:10025000E5CFF5FFE5CFF7FFE5CFF6FFE5CFEAFF06
:10026000E5CFE9FFE5CFDAFF110000000000000054
:10027000000000000000000000000000000000007E
:10028000000012003C0EE66E75EC05F0E55200D061
:100290001200640EE66E75EC05F0E55200D0120017
:1002A000D9CFE6FFE1CFD9FF100EE126020EDB6ABF
:1002B000D950030FE96EDACFEAFF200EEE6E540E2E
:1002C000EE6E6F0EEE6E700EEE6E6C0EEE6E610EDA
:1002D000EE6E6D0EEE6E200EEE6E550EEE6E720E22
:1002E000EE6E750EEE6E6E0EEE6EEE6A5FEC05F063
:1002F000000901E0FBD7010EE66E86EC04F0E55242
:10030000D950030FE66E000EDA20E66EAFEC04F073
:10031000E552E552C00EE66E86EC04F0E552D6ECEE
:1003200004F0F3CFDEFFF4CFDDFFD950020FE66E0D
:10033000000EDA20E66EDECFE6FFDDCFE6FFF6EC5C
:1003400002F0E552E552E552E552D950020FE66E51
:10035000000EDA20E66EAFEC04F0E552E552100E26
:10036000E15C02E2E16AE552E16EE552E7CFD9FFD6
:100370001200D9CFE6FFE1CFD9FF120EE126D95006
:10038000020FE96EDACFEAFF200EEE6EEE6EEE6A35
:10039000D950050FE96EDACFEAFF200EEE6E540E4B
:1003A000EE6E6F0EEE6E700EEE6E6C0EEE6E610EF9
:1003B000EE6E6D0EEE6E200EEE6E550EEE6E720E41
:1003C000EE6E750EEE6E6E0EEE6EEE6A936A946AC7
:1003D0009288816A826ABF0EE66E11EC05F0E552E2
:1003E000840EE66E2DEC05F0E552F28EF28A9D82C7
:1003F000280EE66E90EC03F0E5525FEC05F0000984
:1004000001E0FBD70C0EE66E86EC04F0E5525FECE3
:1004100005F0000901E0FBD7010EE66E86EC04F062
:10042000E552D950050FE66E000EDA20E66EAFEC0D
:1004300004F0E552E552C00EE66E86EC04F0E5529B
:10044000D6EC04F0F3CFDEFFF4CFDDFFD950020F7E
:10045000E66E000EDA20E66EDECFE6FFDDCFE6FFC9
:10046000F6EC02F0E552E552E552E552D950020FA2
:10047000E66E000EDA20E66EAFEC04F0E552E552CF
:10048000D6EC04F0F3CFDEFFF4CFDDFFD950020F3E
:10049000E66E000EDA20E66EDECFE6FFDDCFE6FF89
:1004A000F6EC02F0E552E552E552E552DECF03F0FC
:1004B000DDCF04F0D890045004E60A0E035C000E71
:1004C000045802E3000E01D0010E026EDECF00F0F0
:1004D000DDCF01F0013404E200500008000E0154A9
:1004E00002E3000E01D0010E021416E082825FECDE
:1004F00005F0000901E0FBD7C00EE66E86EC04F0C3
:10050000E552D950020FE66E000EDA20E66EAFEC2F
:1005100004F0E552E5525FD0D9CFE9FFDACFEAFF28
:100520000A0EEE1801E1ED5056E1C00EE66E86ECC3
:1005300004F0E552D950020FE66E000EDA20E66EA6
:10054000AFEC04F0E552E5528292000EE66EE66AE8
:10055000F5EC04F0E552E552010EE66E86EC04F08F
:10056000E55276DD5FEC05F0000901E0FBD7010EF6
:10057000E66E86EC04F0E552D950050FE66E000EEB
:10058000DA20E66EAFEC04F0E552E552C00EE66EFE
:1005900086EC04F0E552D6EC04F0F3CFDEFFF4CFA6
:1005A000DDFFD950020FE66E000EDA20E66EDECFD8
:1005B000E6FFDDCFE6FFF6EC02F0E552E552E5524C
:1005C000E552D950020FE66E000EDA20E66EAFEC6F
:1005D00004F0E552E55254D7120EE15C02E2E16A02
:0C05E000E552E16EE552E7CFD9FF1200B2
:0405EC00D9CFE6FF7E
:1005F000DACFE6FFFA0EE3CFD9FFFB0EE3CFDAFF47
:10060000FD0EE35209E72D0EDE6EFC0EE31EE32A1B
:10061000FD0ED8B4E306E31EE652E652E652FD0EA6
:10062000E124E76EFF0EE220E46EE652F70EE3CF20
:10063000E6FFF70EE3CFE6FF66EC03F0F90EE124E8
:10064000E96EFF0EE220EA6E56EC03F00AE153EC8D
:1006500003F009E156EC03F008E153EC03F007E185
:1006600008D061EC03F05CEC03F061EC03F05CECAF
:1006700003F061EC03F0DE6AF90EE126FF0EE222E0
:10068000FF0EE3CFDAFFE552FF0EE3CFD9FFE552CD
:10069000FC0EE124E96EFF0EE220EA6EEECFF3FFDE
:1006A000EFCFF4FF1200EF380F0B1200EF500F0BDB
:1006B00002E1EE52D8841200EF380F0B300FDE6EDD
:1006C0001200EE500F0B300FDE6E1200FC0EE3CF67
:1006D000E9FFFD0EE3CFEAFF100EE66EEE6AEE6A6A
:1006E000EF6AD890FD0EE336FE0EE336ED36ED36BA
:1006F000EF36FF0EE30609E087EC03F0EE5287ECDD
:1007000003F0EE5287EC03F0EDD7E56E1200030E16
:10071000EF24E8B6EF6E300EEF24E8BEEF6E000C6B
:10072000D9CFE6FFDACFE6FFE1CFD9FFE2CFDAFF9C
:10073000F00E81169316939C939A93988A9C8A9AAA
:100740008A9842EC01F0300E35D8050EE66E48EC82
:1007500005F0E552300E2ED8010EE66E48EC05F09D
:10076000E552320E27D82BD8FEE129D8FEE1FD0E46
:10077000DBCFE6FF86EC04F0E55221D8FEE1080E5F
:1007800019D81DD8FEE10F0E15D819D8FEE1010EBB
:1007900011D815D8FEE1040E0DD811D8FEE1800E57
:1007A000E66E32EC04F0E552E552E5CFDAFFE7CF32
:1007B000D9FF1200E66E86EC04F0E55212005FEC01
:0607C00005F00009120023
:0A07C600060EF66E000EF76E000E30
:1007D000F86E00010900F550856F0900F550866F2D
:1007E00003E1856701D03DD00900F550806F090015
:1007F000F550816F0900F550826F09000900F5502E
:10080000E96E0900F550EA6E090009000900F5508B
:10081000836F0900F550846F09000900F6CF87F057
:10082000F7CF88F0F8CF89F080C0F6FF81C0F7FFDE
:1008300082C0F8FF0001835302E1845307E00900FE
:10084000F550EE6E8307F8E28407F9D787C0F6FF0C
:1008500088C0F7FF89C0F8FF00018507000E865B9E
:04086000BFD71200EC
:0C086400D9CFE6FFDACFE6FFE1CFD9FFE5
:10087000E2CFDAFFF00E93168116FD0EDB508009F1
:10088000E8380F0B0F0B81128A9C8A9A0FD8F00E52
:100890008116FD0EDB500F0B811208D80F0E93123C
:1008A000E552E5CFDAFFE7CFD9FF120035EC01F0D2
:0A08B0008A8835EC01F08A981200E6
:0608BA00D9CFE6FFDACF02
:1008C000E6FFE1CFD9FFE2CFDAFFF00E93168116F3
:1008D000FD0EDB380F0B0F0B81128A8A8A9C0FD812
:1008E000F00E8116FD0EDB500F0B811208D80F0E93
:1008F0009312E552E5CFDAFFE7CFD9FF120035ECCE
:0C09000001F08A8835EC01F08A981200A2
:04090C00D9CFE6FF5A
:10091000DACFE6FFE1CFD9FFE2CFDAFFF00E931690
:100920008116FD0EDB380F0B0F0B81128A9C8A9A01
:100930000FD8F00E8116FD0EDB500F0B811208D878
:100940000F0E9312E552E5CFDAFFE7CFD9FF120081
:0E09500035EC01F08A8835EC01F08A9812002F
:02095E00D9CFEF
:10096000E6FFDACFE6FFE1CFD9FFE2CFDAFF16D814
:100970000FE05FEC05F00009FCE110D8E66E5DECDD
:1009800004F0E552FC0EDB2AFD0EF1E3DB2AEFD783
:10099000E552E5CFDAFFE7CFD9FF1200FC0EDBCF3F
:0C09A000E9FFFD0EDBCFEAFFEF50120074
:0409AC00D9CFE6FFBA
:1009B000DACFE6FFE1CFD9FFE2CFDAFFE652E65227
:1009C000D650DF6E010ED7CFDBFFDECF00F0DDCFDC
:1009D00001F000C0F3FF01C0F4FFE552E552E5521B
:0A09E000E5CFDAFFE7CFD9FF1200E0
:0609EA00D9CFE6FFDACFD1
:1009F000E6FFE1CFD9FFE2CFDAFFE652E652FC0E86
:100A0000DBCFDEFFDBCFDDFF010EDB50D76EDF502B
:100A1000D66EE552E552E552E5CFDAFFE7CFD9FFD2
:020A20001200C2
:0E0A2200D9CFE6FFDACFE6FFE1CFD9FFE2CF72
:100A3000DAFFFD0EDB507F0BD56ED76AD66AF294D3
:100A4000FD0EDBAE02D0F28A01D0F29AD58EE552CD
:0A0A5000E5CFDAFFE7CFD9FF12006F
:060A5A00D9CFE6FFDACF60
:100A6000E6FFE1CFD9FFE2CFDAFFFD0EDB50FB0B53
:100A7000CA6ECC6A9E92FD0EDBAE02D09D8201D082
:100A80009D92CA84E552E5CFDAFFE7CFD9FF120085
:100A9000FF0EE3500A6EEF0E01D0F30EE76EE72E65
:100AA0004FEF05F00C0E096EE76AE72E55EF05F0E3
:0E0AB000092E54EF05F00A2E4DEF05F012004E
:020ABE008A8C20
:100AC0008A9A35EC01F08A8835EC01F081A602D0D3
:100AD00003D8010C01D8000C8A9835EC01F08A8803
:0A0AE00035EC01F08A988A9C1200A0
:060AEA00FF0EE3500A6E4E
:100AF000480E01D04C0EE76EE72EFED7E76AE72ED0
:0A0B0000FED70A2EF7D700001200FE
:060B0A00000EF36E00EE88
:100B100000F0060E01D81200EA6002D0EE6AFCD79F
:0A0B2000F350E9601200EE6AFCD702
:060B2A0015EE00F025EEBF
:100B300000F0F86A089CE3EC03F0A3EC05F0B9ECD4
:060B400001F0FBD71200DA
:020B460012009B
:020000040030CA
:0100010021DD
:010002000EEF
:010003000EEE
:010006008178
:010008000FE8
:01000900C036
:01000A000FE6
:01000B00E014
:01000C000FE4
:01000D0040B2
:00000001FF
