:020000040000FA
:06000000C3EF06F0120040
:020006000000F8
:080008000000000000000000F0
:1000100000000000000000000000000000000000E0
:1000200012003C0EE66EA3EC06F0E55200D0120082
:10003000140EE66EA3EC06F0E55200D01200D9CF04
:10004000E6FFE1CFD9FF0D0EE126DF6AD950010F9F
:10005000E96EDACFEAFF420EEE6E410EEE6E520E00
:10006000EE6E490EEE6E530EEE6E200EEE6E470EE5
:10007000EE6E4F0EEE6E5A0EEE6E440EEE6E450EA6
:10008000EE6EEE6A280EE66E0CEC05F0E552070EF9
:10009000E66EA00EE66E52EC06F0E552E552010E59
:1000A000926E936A956A816A836A0C0EE66E02EC20
:1000B00006F0E552050EE66EDFEC06F0E5528DEC3B
:1000C00006F0000901E0FBD7010EE66E02EC06F037
:1000D000E5528DEC06F0000901E0FBD7D950010F85
:1000E000E66E000EDA20E66E2BEC06F0E552E552E5
:1000F000190EE66ED1EC06F0E552FBEC06F0F3ECDF
:1001000006F0000901E0FBD7D9CFE6FFDACFE6FF22
:10011000EAEC06F0F3CF1AF0F4CF1BF01AC006F0A9
:100120001BC007F0D6EC02F005C016F006C017F0B1
:1001300007C018F008C019F00A6A0B6AFA0E0C6EB4
:100140003E0E0D6E16C005F017C006F018C007F081
:1001500019C008F0E9EC02F056EC03F006C014F008
:1001600007C015F014C0E6FF15C0E6FF72EC04F0FE
:10017000E552E552E552E552190EE66ED1EC06F075
:10018000E552C00EE66E02EC06F0E5528DEC06F08C
:10019000000901E0FBD7D9CFE6FFDACFE6FF2BEC71
:1001A00006F0E552E552EAEC06F0F3CF1CF0F4CF8E
:1001B0001DF01CC006F01DC007F0D6EC02F005C013
:1001C00018F006C019F007C01AF008C01BF00A6A40
:1001D0000B6AFA0E0C6E3E0E0D6E18C005F019C0BB
:1001E00006F01AC007F01BC008F0E9EC02F005C0E9
:1001F00014F006C015F007C016F008C017F00A6A20
:100200000B6AF00E0C6E410E0D6E14C005F015C099
:1002100006F016C007F017C008F08EEC03F0010AD4
:100220003CE1EAEC06F0F3CF26F0F4CF27F026C04D
:1002300006F027C007F0D6EC02F005C022F006C099
:1002400023F007C024F008C025F00A6A0B6AFA0EF2
:100250000C6E3E0E0D6E22C005F023C006F024C0C9
:1002600007F025C008F0E9EC02F005C01EF006C05A
:100270001FF007C020F008C021F00A6A0B6A0C6A60
:100280000D6A1EC005F01FC006F020C007F021C097
:1002900008F085EC03F0010A01E0836AEAEC06F05D
:1002A000F3CF1CF0F4CF1DF01CC006F01DC007F00A
:1002B000D6EC02F005C018F006C019F007C01AF01D
:1002C00008C01BF00A6A0B6AFA0E0C6E3E0E0D6E29
:1002D00018C005F019C006F01AC007F01BC008F0DE
:1002E000E9EC02F005C014F006C015F007C016F0E6
:1002F00008C017F00A6A0B6A200E0C6E410E0D6ED4
:1003000014C005F015C006F016C007F017C008F0BD
:100310008EEC03F0010A3EE1EAEC06F0F3CF26F0A2
:10032000F4CF27F026C006F027C007F0D6EC02F085
:1003300005C022F006C023F007C024F008C025F055
:100340000A6A0B6AFA0E0C6E3E0E0D6E22C005F0A4
:1003500023C006F024C007F025C008F0E9EC02F045
:1003600005C01EF006C01FF007C020F008C021F035
:100370000A6A0B6A0C6A0D6A1EC005F01FC006F0FF
:1003800020C007F021C008F08EEC03F0010A02E063
:10039000836A8380EAEC06F0F3CF1CF0F4CF1DF003
:1003A0001CC006F01DC007F0D6EC02F005C018F026
:1003B00006C019F007C01AF008C01BF00A6A0B6AE1
:1003C000FA0E0C6E3E0E0D6E18C005F019C006F048
:1003D0001AC007F01BC008F0E9EC02F005C014F0E9
:1003E00006C015F007C016F008C017F00A6A0B6ABD
:1003F000200E0C6E410E0D6E14C005F015C006F0F7
:1004000016C007F017C008F08EEC03F0010A40E0B8
:10041000EAEC06F0F3CF26F0F4CF27F026C006F082
:1004200027C007F0D6EC02F005C022F006C023F08A
:1004300007C024F008C025F00A6A0B6AFA0E0C6E99
:100440003E0E0D6E22C005F023C006F024C007F05A
:1004500025C008F0E9EC02F005C01EF006C01FF050
:1004600007C020F008C021F00A6A0B6AA00E0C6ECB
:10047000410E0D6E1EC005F01FC006F020C007F033
:1004800021C008F08EEC03F0010A02E1836A838246
:10049000EAEC06F0F3CF1CF0F4CF1DF01CC006F020
:1004A0001DC007F0D6EC02F005C018F006C019F028
:1004B00007C01AF008C01BF00A6A0B6AFA0E0C6E2D
:1004C0003E0E0D6E18C005F019C006F01AC007F0F8
:1004D0001BC008F0E9EC02F005C014F006C015F0EE
:1004E00007C016F008C017F00A6A0B6AA00E0C6E5F
:1004F000410E0D6E14C005F015C006F016C007F0D1
:1005000017C008F08EEC03F0010A40E0EAEC06F0B8
:10051000F3CF26F0F4CF27F026C006F027C007F06F
:10052000D6EC02F005C022F006C023F007C024F08C
:1005300008C025F00A6A0B6AFA0E0C6E3E0E0D6EAC
:1005400022C005F023C006F024C007F025C008F043
:10055000E9EC02F005C01EF006C01FF007C020F055
:1005600008C021F00A6A0B6AF00E0C6E410E0D6E87
:100570001EC005F01FC006F020C007F021C008F023
:100580008EEC03F0010A02E1836A8384B1D5F8ECB2
:1005900006F05BD50D0EE15C02E2E16AE552E16E28
:0805A000E552E7CFD9FF12007C
:0805A8000F9E08D00F9E07AE64
:1005B00005D0066C071EE86A07220F8E07C001F0FF
:1005C00006C000F0136A126A8E0E026E036A08EF0C
:1005D00004F00F6A44EC04F05CEC04F00FB6ECEFAE
:1005E00003F00FA205D00FB8ECEF03F0F3EF03F028
:1005F0000FAA05D00FB0ECEF03F0F3EF03F00FB04C
:1006000002D00FA802D0FFEF03F0036A0D500824B8
:10061000026EE86A03227E0E025EE86A035A126ADC
:10062000136A006A016A0C500702F4CF01F0F3CF9D
:1006300000F00B500702F3501326F4500022000E76
:1006400001220C500602F3501326F4500022000E33
:1006500001220A500702F3501226F4501322000E12
:10066000002201220B500602F3501226F4501322EE
:10067000000E002201220C500502F3501226F45005
:100680001322000E002201220A500602F450122604
:10069000000E1322002201220B500502F4501226F4
:1006A000000E13220022012208EF04F00F6A44EC2E
:1006B00004F00FB660EF03F00FA20ED00FB405D018
:1006C0007F0E076EFF0E066E1FD0800E076E066A45
:1006D0001BD0076A066A18D00FB0FBD78F0E0860D0
:1006E000EDD77E0E0864F5D78E0E085C05E0D89035
:1006F00007320632082AF8D70FA406D0066C071E68
:10070000E86A072207AEE5D7120097EC03F00FB6B0
:10071000000C0FB0000C0FB4000C010C97EC03F0B0
:100720000FB6000C0FB0000C0FA4000C010C0F6AE8
:1007300044EC04F05CEC04F00FB612000FAE08D0ED
:100740000FA004D00FA802D00F8012000F9012004B
:100750000D50085C0BE10C50075C08E10B50065C87
:1007600005E10A50055C02E10F801200D8A002D01A
:100770000F8E10D008500DC008F00D6E07500CC041
:1007800007F00C6E06500BC006F00B6E05500AC049
:1007900005F00A6E0D50085C10E0FF0F09E00F90A5
:1007A0000FB403D00FAE0F8412000FAE0F941200DF
:1007B0000D2AD8900C320B320A320A50055E0B50CB
:1007C000065A0C50075A07BEEAD7D89005360636A7
:1007D0000736082EF8D7C8D77F0E086EFF0E076EB3
:1007E000066E056E12007F0E0FBEFF0E086E02D061
:1007F0007F0E086E800E076E066A056AF3D70FAE8D
:1008000004D0800E086E076AF7D7086A076AF4D723
:100810000150001013101210F8E003BEF0D701BE13
:100820000CD002500310EBE0D8901236133600368D
:1008300001360206D8A00306F2D70350D4E10228FD
:10084000D2E012AE11D07F0E121402E113A00CD030
:10085000132AE86A0022012207E3D880013200321D
:100860001332022A0228BFE00250C9E013C005F08B
:1008700000C006F00134076E0230086E0732089E91
:100880000FBE088EF2EF03F00736083602E30F843E
:100890000F7E06E10F80086A076A066A056A120081
:1008A000082803E0D88007321200D890073202E10E
:1008B0000F8212000F8612000C360D3602E30F8CE9
:1008C0000F7E06E10F880D6A0C6A0B6A0A6A120035
:1008D0000D2803E0D8800C321200D8900C32EAE1E7
:0408E0000F8A120069
:0C08E400D9CFE6FFDACFE6FFFA0EE3CF33
:1008F000D9FFFB0EE3CFDAFFFD0EE35209E72D0E21
:10090000DE6EFC0EE31EE32AFD0ED8B4E306E31E02
:10091000E652E652E652FD0EE124E76EFF0EE220BB
:10092000E46EE652F70EE3CFE6FFF70EE3CFE6FF05
:10093000E2EC04F0F90EE124E96EFF0EE220EA6E2B
:10094000D2EC04F00AE1CFEC04F009E1D2EC04F0BF
:1009500008E1CFEC04F007E108D0DDEC04F0D8ECBE
:1009600004F0DDEC04F0D8EC04F0DDEC04F0DE6A19
:10097000F90EE126FF0EE222FF0EE3CFDAFFE55289
:10098000FF0EE3CFD9FFE552FC0EE124E96EFF0E26
:10099000E220EA6EEECFF3FFEFCFF4FF1200EF3864
:1009A0000F0B1200EF500F0B02E1EE52D884120031
:1009B000EF380F0B300FDE6E1200EE500F0B300FC2
:1009C000DE6E1200FC0EE3CFE9FFFD0EE3CFEAFF7F
:1009D000100EE66EEE6AEE6AEF6AD890FD0EE33610
:1009E000FE0EE336ED36ED36EF36FF0EE30609E098
:1009F00003EC05F0EE5203EC05F0EE5203EC05F0CB
:100A0000EDD7E56E1200030EEF24E8B6EF6E300E60
:080A1000EF24E8BEEF6E000CBC
:080A1800D9CFE6FFDACFE6FFBB
:100A2000E1CFD9FFE2CFDAFFF00E81169316939C47
:100A3000939A93988A9C8A9A8A9811EC00F0300EC7
:100A400035D8050EE66E76EC06F0E552300E2ED85F
:100A5000010EE66E76EC06F0E552320E27D82BD862
:100A6000FEE129D8FEE1FD0EDBCFE6FF02EC06F049
:100A7000E55221D8FEE1080E19D81DD8FEE10F0E6F
:100A800015D819D8FEE1010E11D815D8FEE1040ED3
:100A90000DD811D8FEE1800EE66EAEEC05F0E55201
:100AA000E552E5CFDAFFE7CFD9FF1200E66E02ECA0
:0E0AB00006F0E55212008DEC06F0000912006F
:020ABE00060E22
:100AC000F66E000EF76E000EF86E00010900F5508C
:100AD000856F0900F550866F03E1856701D03DD031
:100AE0000900F550806F0900F550816F0900F5503D
:100AF000826F09000900F550E96E0900F550EA6EB1
:100B0000090009000900F550836F0900F550846F52
:100B100009000900F6CF87F0F7CF88F0F8CF89F009
:100B200080C0F6FF81C0F7FF82C0F8FF0001835349
:100B300002E1845307E00900F550EE6E8307F8E206
:100B40008407F9D787C0F6FF88C0F7FF89C0F8FF90
:0C0B500000018507000E865BBFD7120075
:040B5C00D9CFE6FF08
:100B6000DACFE6FFE1CFD9FFE2CFDAFFF00E93163E
:100B70008116FD0EDB508009E8380F0B0F0B811238
:100B80008A9C8A9A0FD8F00E8116FD0EDB500F0B4F
:100B9000811208D80F0E9312E552E5CFDAFFE7CFA6
:100BA000D9FF120004EC00F08A8804EC00F08A9867
:020BB000120031
:0E0BB200D9CFE6FFDACFE6FFE1CFD9FFE2CFE1
:100BC000DAFFF00E93168116FD0EDB380F0B0F0BBC
:100BD00081128A8A8A9C0FD8F00E8116FD0EDB5096
:100BE0000F0B811208D80F0E9312E552E5CFDAFFF2
:100BF000E7CFD9FF120004EC00F08A8804EC00F083
:040C00008A981200BC
:0C0C0400D9CFE6FFDACFE6FFE1CFD9FF41
:100C1000E2CFDAFFF00E93168116FD0EDB380F0BD4
:100C20000F0B81128A9C8A9A0FD8F00E8116FD0E46
:100C3000DB500F0B811208D80F0E9312E552E5CF4F
:100C4000DAFFE7CFD9FF120004EC00F08A8804EC49
:060C500000F08A9812007A
:0A0C5600D9CFE6FFDACFE6FFE1CFC9
:100C6000D9FFE2CFDAFF16D80FE08DEC06F00009CD
:100C7000FCE110D8E66ED9EC05F0E552FC0EDB2A5B
:100C8000FD0EF1E3DB2AEFD7E552E5CFDAFFE7CF40
:100C9000D9FF1200FC0EDBCFE9FFFD0EDBCFEAFF30
:040CA000EF501200FF
:0C0CA400D9CFE6FFDACFE6FFE1CFD9FFA1
:100CB000E2CFDAFFC26AFD0EDB50C16EFC0EDB50E4
:100CC000380B146EFD0EDB50040DF350C00B1410E6
:100CD000C26EFC0EDBAE03D09E9C9D8CF28CC2805B
:0C0CE000E552E5CFDAFFE7CFD9FF1200A4
:040CEC00FF0EE350C4
:100CF000296EEF0E01D0F30EE76EE72E7DEF06F0C2
:100D00000C0E286EE76AE72E83EF06F0282E82EF9E
:0A0D100006F0292E7BEF06F012001A
:060D1A008A8C8A9A04ECA9
:100D200000F08A8804EC00F081A602D003D8010C00
:100D300001D8000C8A9804EC00F08A8804EC00F0DA
:060D40008A988A9C120053
:0A0D4600FF0EE350296E480E01D0A5
:100D50004C0EE76EE72EFED7E76AE72EFED7292E68
:060D6000F7D700001200AD
:0A0D6600000EF36E00EE00F0060E22
:100D700001D81200EA6002D0EE6AFCD7F350E960B5
:060D80001200EE6AFCD730
:0A0D860015EE00F025EE00F0F86A0B
:100D90000F9C5FEC05F0FDEC06F01FEC00F0FBD7BC
:020DA00012003F
:0E0DA200FF0EE350296E1B0E00D001D0200E74
:0E0DB000E76EE72EFED7292EFAD700D01200EC
:020DBE00FF0E26
:100DC000E350E84E1200000000D000D000D0E82E22
:040DD000FAD712003C
:0C0DD400C450176E166AC3501610F36E60
:060DE00017C0F4FF120031
:0A0DE600C250040B01E0010E1200E0
:060DF000C2909D9C120060
:040DF600C2841200A1
:020DFA001200E5
:020000040030CA
:0100010021DD
:010002000EEF
:010003000EEE
:010006008178
:010008000FE8
:01000900C036
:01000A000FE6
:01000B00E014
:01000C000FE4
:01000D0040B2
:00000001FF
