:020000040000FA
:0600000014EF02F01200F3
:0A0006000100460400008000000025
:0400100020000000CC
:0C001400D9CFE6FFE1CFD9FF0C0EE126AA
:10002000DE6ADD6A020EDB6A030EDB6A040EDB6A3F
:10003000050EDB6A060EDB6A070EDB6A010EF36E45
:10004000080EF3CFDBFF090EDB6A0A0EDB6A0B0E2C
:10005000DB6A9468956A9692836A8492849282B0ED
:1000600019D082A0FED71E0EE66EF4EC01F0E55228
:10007000DF2A010E01E3DB2AD9CFE9FFDACFEAFF5D
:10008000030EEE1801E1ED5004E1010E836EDE6A0D
:10009000DD6AE5D782B235D0836A82A2FED7FA0E36
:1000A000E66EF4EC01F0E552020EDB6A030EDB6A49
:1000B000020EDBCF02F0030EDBCF03F0D89003502B
:1000C00004E6080E025C000E03581AE2020EDBCFB3
:1000D000E9FF030EDBCFEAFFD890E936EA36800E5F
:1000E000E926000EEA22EF50836EE80EE66EF4EC8D
:1000F00001F0E552020EDB2A030E01E3DB2AD8D71A
:10010000C9D782B435D0836A82A4FED7FA0EE66ED0
:10011000F4EC01F0E552020EDB6A030EDB6A020E1C
:10012000DBCF02F0030EDBCF03F0D890035004E6E0
:10013000080E025C000E03581AE2020EDBCFE9FF44
:10014000030EDBCFEAFFD890E936EA36900EE926B7
:10015000000EEA22EF50836EE80EE66EF4EC01F03A
:10016000E552020EDB2A030E01E3DB2AD8D7C9D7FA
:1001700082B63ED0836A82A6FED7E668F4EC01F030
:10018000E5520A0EDB6A0B0EDB6A020EDB6A030E17
:10019000DB6A020EDBCF02F0030EDBCF03F0D89058
:1001A000035004E6FF0E025C000E035820E2010E2D
:1001B000E76E0A0EDBCF02F00B0EDBCF03F0E75049
:1001C0000226000E03220A0E02C0DBFF0B0E03C044
:1001D000DBFF0A0EDB50836E1E0EE66EDDEC01F0D7
:1001E000E552020EDB2A030E01E3DB2AD2D7C0D789
:1001F00082B806D0836A82A8FED7550E836EF8D7E0
:1002000082BA06D0836A82AAFED7AA0E836EF8D776
:1002100082BC6CD082ACFED71E0EE66EF4EC01F010
:10022000E552040EDB2A050E01E3DB2A040EDBCFC8
:1002300002F0050EDBCF03F0D890035004E6080E61
:10024000025C000E035812E2080EDB50836E080EAB
:10025000DBCF02F0090EDBCF03F0D8900236033675
:10026000080E02C0DBFF090E03C0DBFF040EDBCF6C
:1002700002F0050EDBCF03F0D890035004E6080E21
:10028000025C000E035831E3D950040FE96EDACF57
:10029000EAFF080EEE1801E1ED5007E1800EF36E63
:1002A000080EF3CFDBFF090EDB6A080EDB50836E0E
:1002B000080EDBCF02F0090EDBCF03F0D89003323B
:1002C0000232080E02C0DBFF090E03C0DBFFD9506B
:1002D000040FE96EDACFEAFF0E0EEE1801E1ED50E1
:1002E00004E1040EDB6A050EDB6A92D782BE0BD0F6
:1002F000846A82AEFED78482640EE66EDDEC01F085
:10030000E5528492F3D7ABD60C0EE15C02E2E16ACF
:0C031000E552E16EE552E7CFD9FF120084
:04031C00060EF66E65
:10032000000EF76E000EF86E00010900F550A56F83
:100330000900F550A66F03E1A56701D03DD0090083
:10034000F550A06F0900F550A16F0900F550A26F9C
:1003500009000900F550E96E0900F550EA6E090040
:1003600009000900F550A36F0900F550A46F0900BA
:100370000900F6CFA7F0F7CFA8F0F8CFA9F0A0C0FA
:10038000F6FFA1C0F7FFA2C0F8FF0001A35302E1EE
:10039000A45307E00900F550EE6EA307F8E2A407A6
:1003A000F9D7A7C0F6FFA8C0F7FFA9C0F8FF000162
:0A03B000A507000EA65BBFD71200E0
:0603BA00FF0EE350056E8A
:1003C000EF0E01D0F30EE76EE72EE4EF01F00C0E16
:1003D000046EE76AE72EEAEF01F0042EE9EF01F080
:0803E000052EE2EF01F012000E
:0803E800FF0EE350056E480E04
:1003F00001D04C0EE76EE72EFED7E76AE72EFED758
:08040000052EF7D700001200E1
:08040800000EF36E00EE00F09F
:10041000060E01D81200EA6002D0EE6AFCD7F35053
:08042000E9601200EE6AFCD74E
:0804280015EE00F025EE00F0D6
:10043000F86A019C8EEC01F022EC02F00AEC00F06C
:04044000FBD71200D4
:020444001200A4
:0A0446000100030007000F001F0073
:100450003F007F00FF008000C000E000F000F800D7
:06046000FC00FE00FF009D
:020000040030CA
:0100010021DD
:010002000EEF
:010003000EEE
:010006008178
:010008000FE8
:01000900C036
:01000A000FE6
:01000B00E014
:01000C000FE4
:01000D0040B2
:00000001FF
