:020000040000FA
:0600000007EF02F0120000
:0A00060001002C040000800000003F
:040010003E000000AE
:0C001400D9CFE6FFE1CFD9FF0A0EE126AC
:10002000DE6ADD6A020EDB6A030EDB6A040EDB6A3F
:10003000050EDB6A060EDB6A070EDB6A010EF36E45
:10004000080EF3CFDBFF090EDB6A9468956A96927F
:10005000836A8492849282B019D082A0FED71E0E49
:10006000E66EE7EC01F0E552DF2A010E01E3DB2A40
:10007000D9CFE9FFDACFEAFF030EEE1801E1ED5028
:1000800004E1010E836EDE6ADD6AE5D782B235D007
:10009000836A82A2FED7FA0EE66EE7EC01F0E55223
:1000A000020EDB6A030EDB6A020EDBCF02F0030EE8
:1000B000DBCF03F0D890035004E6080E025C000E7C
:1000C00003581AE2020EDBCFE9FF030EDBCFEAFF93
:1000D000D890E936EA36800EE926000EEA22EF5083
:1000E000836EE80EE66EE7EC01F0E552020EDB2AC5
:1000F000030E01E3DB2AD8D7C9D782B435D0836A8F
:1001000082A4FED7FA0EE66EE7EC01F0E552020E8D
:10011000DB6A030EDB6A020EDBCF02F0030EDBCFDD
:1001200003F0D890035004E6080E025C000E03585A
:100130001AE2020EDBCFE9FF030EDBCFEAFFD89015
:10014000E936EA36900EE926000EEA22EF50836E79
:10015000E80EE66EE7EC01F0E552020EDB2A030E34
:1001600001E3DB2AD8D7C9D782B635D0836A82A605
:10017000FED7FA0EE66EE7EC01F0E552020EDB6AFE
:10018000030EDB6A020EDBCF02F0030EDBCF03F0BF
:10019000D890035004E60F0E025C000E03581AE2DA
:1001A000020EDBCFE9FF030EDBCFEAFFD890E93682
:1001B000EA36A00EE926000EEA22EF50836E1E0EEC
:1001C000E66ED0EC01F0E552020EDB2A030E01E3ED
:1001D000DB2AD8D7C9D782B806D0836A82A8FED7CF
:1001E000550E836EF8D782BA06D0836A82AAFED7EC
:1001F000AA0E836EF8D782BC6CD082ACFED71E0EDE
:10020000E66EE7EC01F0E552040EDB2A050E01E391
:10021000DB2A040EDBCF02F0050EDBCF03F0D89013
:10022000035004E6080E025C000E035812E2080EAA
:10023000DB50836E080EDBCF02F0090EDBCF03F03C
:10024000D89002360336080E02C0DBFF090E03C049
:10025000DBFF040EDBCF02F0050EDBCF03F0D890FE
:10026000035004E6080E025C000E035831E3D95037
:10027000040FE96EDACFEAFF080EEE1801E1ED5047
:1002800007E1800EF36E080EF3CFDBFF090EDB6A89
:10029000080EDB50836E080EDBCF02F0090EDBCFB9
:1002A00003F0D89003320232080E02C0DBFF090EC1
:1002B00003C0DBFFD950040FE96EDACFEAFF0E0E60
:1002C000EE1801E1ED5004E1040EDB6A050EDB6A75
:1002D00092D782BE0BD0836A82AEFED78482640E30
:1002E000E66ED0EC01F0E5528492F3D7B4D60A0E54
:1002F000E15C02E2E16AE552E16EE552E7CFD9FF47
:020300001200E9
:0E030200060EF66E000EF76E000EF86E00018D
:100310000900F550C36F0900F550C46F03E1C367CE
:1003200001D03DD00900F550BE6F0900F550BF6FF8
:100330000900F550C06F09000900F550E96E090089
:10034000F550EA6E090009000900F550C16F090077
:10035000F550C26F09000900F6CFC5F0F7CFC6F01F
:10036000F8CFC7F0BEC0F6FFBFC0F7FFC0C0F8FFB0
:100370000001C15302E1C25307E00900F550EE6EDF
:10038000C107F8E2C207F9D7C5C0F6FFC6C0F7FF3C
:10039000C7C0F8FF0001C307000EC45BBFD712003F
:1003A000FF0EE350056EEF0E01D0F30EE76EE72E61
:1003B000D7EF01F00C0E046EE76AE72EDDEF01F0D7
:0E03C000042EDCEF01F0052ED5EF01F0120047
:0203CE00FF0E20
:1003D000E350056E480E01D04C0EE76EE72EFED7B7
:0E03E000E76AE72EFED7052EF7D700001200C1
:0203EE00000EFF
:1003F000F36E00EE00F0060E01D81200EA6002D0A3
:0E040000EE6AFCD7F350E9601200EE6AFCD7FA
:02040E0015EEE9
:1004100000F025EE00F0F86A019C81EC01F015EC8B
:0A04200002F00AEC00F0FBD7120016
:02042A001200BE
:04042C0001000300C8
:1004300007000F001F003F007F00FF008000C0008A
:10044000E000F000F800FC00FE00FF0001000200E8
:1004500003000400070008000F0010001F00200028
:0A0460003F0040007F008000FF0015
:020000040030CA
:0100010021DD
:010002000EEF
:010003000EEE
:010006008178
:010008000FE8
:01000900C036
:01000A000FE6
:01000B00E014
:01000C000FE4
:01000D0040B2
:00000001FF
