:020000040000FA
:0600000033EF02F01200D4
:0A00060001008404000080000000E7
:0400100010000000DC
:0C001400D9CFE6FFE1CFD9FF040EE126B2
:10002000DE6ADD6A020EDB6A030EDB6A020EDB6A41
:10003000030EDB6A020EDBCF02F0030EDBCF03F010
:10004000D890035004E6640E025C000E035819E2D7
:10005000DE6ADD6ADECF02F0DDCF03F0D890035018
:1000600004E6640E025C000E035805E2DF2A010E6E
:1000700001E3DB2AEFD7020EDB2A030E01E3DB2AC2
:10008000D9D7040EE15C02E2E16AE552E16EE55285
:10009000E7CFD9FF1200D9CFE6FFE1CFD9FF0A0E93
:1000A000E126DE6ADD6A020EDB6A030EDB6A040EFD
:1000B000DB6A050EDB6A060EDB6A070EDB6A080EDA
:1000C000DB6A090EDB6A9468956A966A836A82B075
:1000D00018D082A0FED79EDF82B0FED79BDFDF2A3A
:1000E000010E01E3DB2AD9CFE9FFDACFEAFF020EE6
:1000F000EE1801E1ED5004E1010E836EDE6ADD6A67
:10010000E6D782B234D082A2FED7836AE80EE66ECA
:1001100013EC02F0E5528380E80EE66E13EC02F079
:10012000E5528382E80EE66E13EC02F0E55283841A
:10013000E80EE66E13EC02F0E5528386E80EE66EFA
:1001400013EC02F0E5528388E80EE66E13EC02F041
:10015000E552838AE80EE66E13EC02F0E552838CDA
:10016000E80EE66E13EC02F0E552838ECAD782B435
:1001700039D082A4FED7836AE80EE66E13EC02F053
:10018000E552838EE80EE66E13EC02F0E552838CA6
:10019000E80EE66E13EC02F0E552838AE80EE66E96
:1001A00013EC02F0E5528388E80EE66E13EC02F0E1
:1001B000E5528386E80EE66E13EC02F0E552838486
:1001C000E80EE66E13EC02F0E5528382E80EE66E6E
:1001D00013EC02F0E5528380E80EE66E13EC02F0B9
:1001E000E552C5D782B63FD082A6FED7836A060EF7
:1001F000DB6A070EDB6AE80EE66E13EC02F0E552EE
:10020000040EDB6A050EDB6A040EDBCF02F0050E7E
:10021000DBCF03F0D890035004E6FF0E025C000E23
:10022000035820E2010EE76E060EDBCF02F0070E48
:10023000DBCF03F0E7500226000E0322060E02C0B9
:10024000DBFF070E03C0DBFF060EDB50836E320EB2
:10025000E66EFCEC01F0E552040EDB2A050E01E32C
:10026000DB2AD2D7BFD782B80BD082A8FED7836A49
:10027000E80EE66E13EC02F0E552550E836EF3D7EE
:1002800082BA0BD082AAFED7836AE80EE66E13EC20
:1002900002F0E552AA0E836EF3D782BC42D082AC44
:1002A000FED7836AE80EE66E13EC02F0E552080E04
:1002B000DBCFE9FF090EDBCFEAFFD890E936EA365B
:1002C000800EE926000EEA22EF50836E010EE76EE3
:1002D000080EDBCF02F0090EDBCF03F0E750022659
:1002E000000E0322080E02C0DBFF090E03C0DBFF75
:1002F000E80EE66E13EC02F0E552D950080FE96EF5
:10030000DACFEAFF080EEE1801E1ED5009E1080E20
:10031000DB6A090EDB6AE80EE66E13EC02F0E552CA
:10032000BCD782BE0FD082AEFED7836AE80EE66EDF
:1003300013EC02F0E5528482E668FCEC01F0E55231
:100340008492EFD7C4D60A0EE15C02E2E16AE5527C
:0A035000E16EE552E7CFD9FF12007D
:06035A00060EF66E000E17
:10036000F76E000EF86E00010900F550956F090058
:10037000F550966F03E1956701D03DD00900F55027
:10038000906F0900F550916F0900F550926F0900C8
:100390000900F550E96E0900F550EA6E0900090000
:1003A0000900F550936F0900F550946F090009009A
:1003B000F6CF97F0F7CF98F0F8CF99F090C0F6FF0E
:1003C00091C0F7FF92C0F8FF0001935302E19453EC
:1003D00007E00900F550EE6E9307F8E29407F9D7AD
:1003E00097C0F6FF98C0F7FF99C0F8FF0001950786
:0803F000000E965BBFD712005E
:0803F800FF0EE350056EEF0E4D
:1004000001D0F30EE76EE72E03EF02F00C0E046E40
:10041000E76AE72E09EF02F0042E08EF02F0052E3E
:0604200001EF02F01200E2
:0A042600FF0EE350056E480E01D0F2
:100430004C0EE76EE72EFED7E76AE72EFED7052EB5
:06044000F7D700001200D6
:0A044600000EF36E00EE00F0060E4B
:1004500001D81200EA6002D0EE6AFCD7F350E960DE
:060460001200EE6AFCD759
:0A04660015EE00F025EE00F0F86A34
:10047000019CADEC01F041EC02F04BEC00F0FBD73D
:02048000120068
:02048200120066
:0C0484000100020004000800100020002D
:0404900040008000A8
:020000040030CA
:0100010021DD
:010002000EEF
:010003000EEE
:010006008178
:010008000FE8
:01000900C036
:01000A000FE6
:01000B00E014
:01000C000FE4
:01000D0040B2
:00000001FF
